:020000040000FA
:2010000000000420AD520000D5520000D7520000D9520000DB520000DD52000000000000D6
:20102000000000000000000000000000DF520000E152000000000000E3520000E5520000E0
:201040006D9300006D89000005110100E7520000E7520000E752000009900000E752000006
:2010600015E10000E7520000E75200007D940000E75200007D930000E7520000E75200003C
:2010800089B40000E7520000E7520000E7520000E7520000E7520000E7520000E752000084
:2010A000E7520000E7520000E7520000E7520000E7520000E75200000000000000000000DA
:2010C000E7520000E7520000E7520000E7520000E7520000E7520000E75200006DAC000068
:2010E000E7520000E7520000E75200000000000000000000E752000000000000E7520000D3
:201100000000000000000000000000000000000000000000000000000000000000000000CF
:201120000000000000000000000000000000000000000000000000000000000000000000AF
:2011400000000000000000000000000000000000000000000000000000000000000000008F
:2011600000000000000000000000000000000000000000000000000000000000000000006F
:2011800000000000000000000000000000000000000000000000000000000000000000004F
:2011A00000000000000000000000000000000000000000000000000000000000000000002F
:2011C00000000000000000000000000000000000000000000000000000000000000000000F
:2011E0000000000000000000000000000000000000000000000000000000000000000000EF
:2012000001F0FF01102A2BDB10F0070F08D010F8013B013A8B422DD010F0070F42B3F6D194
:20122000F0B441EA012141EA014122F007047FF000070023F0E80256083C85EA010586EA41
:20124000010685FA47F5A3FA87F586FA47F6A5FA87F68EB9EED1F0BC01F0FF0102F007023C
:2012600032B110F8013B013A83EA010313B1F8D10020704701387047002D06BF354603389F
:20128000073815F0010F07D1013015F4807F02BF013015F4C03F0130F0BC0138704700BF63
:2012A00010B5054C237833B9044B13B10448AFF300800123237010BD080300200000000061
:2012C000EC60010008B5034B1BB103490348AFF3008008BD000000000C030020EC600100F0
:2012E000A3F5803A704700BF174B002B08BF134B9D46FFF7F5FF00218B460F461348144AA7
:20130000121A14F00DF80E4B002B00D098470D4B002B00D098470020002104000D000D488C
:20132000002802D00C48AFF3008012F0D7FC2000290002F017FF12F0BDFC00BF0000080095
:20134000000000000000000000000420E8020020A8360020000000000000000000B585B077
:201360000346002101AA44F20100CDE90111039300F004F805B05DF804FB00BF72B6094B93
:201380001B68DB0700D500BEBFF34F8F0649074BCA6802F4E0621343CB60BFF34F8F00BFEA
:2013A000FDE700BFF0ED00E000ED00E00400FA050378052B02D0094B1B681847084BD3F82C
:2013C0008424D3F8803413F0FF0FF4D1054BD2B2052A08BF1846014B1B6818472403002073
:2013E0000070024050560100014B02481B6818472403002054560100012803D0022809D02B
:2014000020B17047054B06481B681847034B05481B681847014B04481B6818472403002086
:2014200048560100445601004C5601002DE9F04F87B0002504460F4690469946029500E053
:2014400001356268012356682146002202A8B0470028F5D18DF80600049065B382468346CA
:201460000AE09DF806306668023B7668B0479DF806309B445D451ED9626801235668214681
:201480000DF1060204A8B04762680123566821460DF1070204A8B0479DF80730BB424FF0DE
:2014A0000002214604A8DCD1D04508D00AF1010A5FFA8AFAD5E7052007B0BDE8F08F109A34
:2014C0009DF80630136089F8003089F801706168023B4D6809F102022146A847002007B045
:2014E000BDE8F08FF0B5054683B03B4808F0EAFE044610B1204603B0F0BD384A3849394BEA
:2015000014700C604822214637481C6013F008FF36482146482213F003FF002D54D095E8E3
:201520000700334B83E80700002847D0002007F017FB08B1852844D12E4D2B7A002B49D06D
:20154000013BDBB205F10C024FF0030E6E68274FDFF894C01EFB032E05F109046378EBB133
:20156000A278611C1144013B51FA83F1224408E003F00F0307EBC30391421D6030685860D9
:201580000CD012F8013B1806F2D503F00F030CEBC30391421D6030685860F2D1033474452F
:2015A000DCD10B238DF804301248336801A99847044600289ED008F0C7FE9BE70E4A1A6028
:2015C000B4E7FFF7CBFEB7E7094B0B4A5D601D721A60ABE76E68E4E7B11300001B2A002048
:2015E000C0030020C403002030030020780300202403002080560100C119000010B508F07E
:20160000BDFF68B108F0C2FF044648B9064807F0BBFA034628B1FFF7A1FE2346184610BDAC
:201620000823184610BD00BF4056010008F096BE09F094BD4FF0804303E0D3F83824D10784
:2016400007D5D3F838249207F7D5024B02481B6818477047240300205856010000B5054BF7
:2016600083B082221B688DF8042001A8984703B05DF804FB240300202DE9F043057A83B096
:20168000002D5ED005F1FF3E5FFA8EF300F10C024FF0030E00F10901334FDFF8D4C01EFB92
:2016A000032E0C4666780022964204EB020319D094F8028013F9089013F80830B9F1000F44
:2016C0000BDB03F00F0307EBC3031B680132002BEAD0112003B0BDE8F08303F00F030CEBD4
:2016E000C303F2E70334A645DCD100261E4FDFF880C0324602EB42020A445378EBB1002450
:2017000023460CE003F00F0307EBC303186045682D685D6055780134E3B29D420CD99578D8
:20172000134413F905E05B5DBEF1000FEADA03F00F030CEBC303E9E7057A0136F2B2954264
:20174000D8D80A4A13681BB11A681368002BFBD1106043680B228DF804201B6801A998474D
:2017600003B0BDE8F08300BF78030020C003002030030020024B1878003818BF012070474A
:201780001A2A0020030710B5044604D52046BDE8104009F07BBB09F093F8204609F0CEFBBD
:2017A0002046BDE8104009F071BB00BF09F0B4BD014B1868704700BFC0030020F0B40E4B5E
:2017C0001F688FB13E7A96B100231C463A4602E0DCB2A6420BD9557A854203F1010302F181
:2017E0000302F5D101B10C703846F0BC70473B681F68002FE6D1F7E7C0030020436811463C
:201800001B68184700F00F03082B0AD802064CBF054A064A02EBC303186810B143681B68FB
:2018200018471020704700BF300300207803002038B5094B1C6864B1054602E023681C689F
:201840003CB1636829461B68204698470628F5D038BD062038BD00BFC003002038B50D46B4
:20186000044608F0FFFE18B1054B1B78022B01D0082038BD29462046BDE8384008F002BFB7
:201880001B2A002038B50D46044608F0EBFE18B1054B1B78022B01D0082038BD29462046DC
:2018A000BDE8384008F080BF1B2A0020F8B543689B6805460C4616461BB19847062800D072
:2018C000F8BDEEB92B7AA3421CD9093504EB44042C44677897B133463A469A420BD9A3784D
:2018E000A2190136D05CFFF74DFFF3B2BB4205D262789A42F3D800231B78FFDE0020F8BD26
:201900000720F8BD7378FFDE70B54368DB6805460C4603B198472B7AA3421AD9093504EB36
:2019200044042C4466789EB100252B46324693420BD2A37862190135D05C09F0EDFCEBB28B
:201940009E4205D962789342F3D300231B78FFDE70BD00235B78FFDE43681B6903B118477F
:201960001846704770B50A4B1D687DB12E7A4EB100242146013400222846FFF797FFE1B20F
:20198000B142F7D32B681D68002DEFD170BD00BFC003002070B5094B1D6875B12E7A46B1F3
:2019A0000024214601342846FFF7AEFFE1B2B142F8D32B681D68002DF0D170BDC0030020EF
:2019C00070B503780446852B00F2BF80DFE813F00002B201BE003A026602E300EA00BD00D1
:2019E000040117012A01BD00BD00BD00BD003D01BD00BD00BD00BD00BD00BD00BD00BD0085
:201A0000BD00BD00BD00BD00BD00BD00BD00BD00BD00BD00BD00BD00BD00BD00BD00BD00F6
:201A2000BD00BD00BD00BD00BD00BD00BD00BD00BD00BD00BD00BD00BD00BD00BD00BD00D6
:201A4000BD00BD00BD00BD00BD00BD00BD00BD00BD00BD00BD00BD00BD00BD00BD00BD00B6
:201A6000BD00BD00BD00BD00BD00BD00BD00BD00BD00BD00BD00BD00BD00BD00BD00BD0096
:201A8000BD00BD00BD00BD00BD00BD00BD00BD00BD00BD00BD00BD00BD00BD00BD00BD0076
:201AA000BD00BD00BD00BD00BD00BD00BD00BD00BD00BD00BD00BD00BD00BD00BD00BD0056
:201AC000BD00BD00BD00BD00BD00BD00BD00BD005101860060011C02E301E3008C4B8D4953
:201AE000D3E9000290478C4B1C684CB1894D636820461B682946984723681C68002CF6D11F
:201B0000864C63680BB10D209847FFF743FF01F075FB834B1B68002B00F0FD810120814DEE
:201B200008F0FAFC2A78931EDBB2062B00F215827D49CB5C13B106F0F9FF2A78022A40F080
:201B40000C8208F065FD01232B7070BD754D2A78931EDBB2062B00F2CD817349CB5C13B1F7
:201B600006F0E4FF2A78022A40F0C48108F050FD6A4B5B6803222A700BB102209847664B5F
:201B80001D6845B16B6828461B68214698472B681D68002DF6D15E4B2146D3E90002BDE841
:201BA0007040104790F902308278002BB4BF5F4B574B02F00F0203EBC203D3E900022146A4
:201BC00090470028C1D0A0780207BED00307BCD4BDE8704008F046BE504B5B680BB1082099
:201BE00098474D4B1D68002DAFD06B6828461B68214698472B681D68002DF6D1A5E7474B09
:201C00005B680BB109209847434B1D68002D9CD06B6828461B68214698472B681D68002D42
:201C2000F6D192E73D4B5B680BB10A2098473A4B1D68002D89D06B6828461B6821469847BA
:201C40002B681D68002DF6D17FE7344B5B680BB10F209847304B1D68002D3FF476AF6B68AE
:201C600028461B68214698472B681D68002DF6D16BE72C4C2378062B00F04F8103F0FD03D8
:201C8000052B7FF462AF08F0CDFC0223237070BD244DFFF77FFE09F055FA2A78931EDBB2DE
:201CA000062B31D82049CB5C13B106F03FFF2A78022A29D108F0ACFC174B1C6800232B7056
:201CC0004CB11B4E636820461B683146984723681C68002CF6D10E4B1549D3E90002904746
:201CE0000E4B5B680BB10E2098472B78023BDBB2062B3FF62AAF0C4AD35C002B3FF425AF9C
:201D0000BDE8704006F012BF082AD5D1D2E700BF780300205C560100C003002024030020DF
:201D2000C40300201B2A00203856010030030020605601009C4DFFF72DFE01F055FA2A78D2
:201D4000931EDBB2062B00F2D9809849CB5C002B00F0D480022A03D0082A01D008F062FCFA
:201D6000934B5B6802222A700BB101209847914B2146D3E9000290478F4B1D68002D3FF4B1
:201D8000E4AE6B6828461B68214698472B681D68002DF6D170BD844D2B78032B00F0C68096
:201DA00008F0FEFB00283FF4D0AE2A78931EDBB2062B40F2EB80814806F08AFE2A78022A96
:201DC00001D0082A01D108F023FC06232B7070BD754B1B78032B00F0A580082B00F0A2804B
:201DE000734B5B680BB100209847754B1D68002D3FF4ABAE6B6828461B68214698472B680C
:201E00005D68002DF6D170BD674D2B78032B7FF49CAE09F0D3F900283FF497AE2A78931EE2
:201E2000DBB2062B00F2BB806049CB5C13B106F07DFE2A78022A40F0B28008F0E9FB04237F
:201E40002B7070BD584D2A78082A5CD0931EDBB2062B00F286805549CB5C002B00F08180CD
:201E6000022A00F0878005232B70514B5B680BB1032098474F4B2146D3E9000290474E4B30
:201E80001D68002D3FF461AE6B6828461B68214698472B681D68002DF6D170BD444B5B68B9
:201EA0000BB103209847434B4649D3E900029047414B1C684CB1434D636820461B682946F2
:201EC000984723681C68002CF6D1374D2B78062B1ED0082B0BD09A1ED2B2062A4DD83349C0
:201EE0008A5C002A49D0022B01D008F09BFB02232B7070BD082A7FF43BAE37E62F4806F028
:201F0000E7FD2A7826E702232B7008F095FBACE707232B7070BD207A01E608F083FB08233F
:201F2000237070BD2848FFF74BFD59E709F046F900283FF435AF2A78931EDBB2062B2BD868
:201F40001A49CB5C13B106F0F1FD2A78022A23D108F05EFB04232B7022E7082A7FF4F3AD2C
:201F6000EFE5164806F0B4FD2B78022B02D0082B7FF479AF08F04CFB75E7104806F0A8FD8A
:201F80002B78022BB3D0082BB1D0AEE70749CB5C002B7FF414AF0EE7082ADBD1D8E7082A09
:201FA0007FF44DAF49E700BF1B2A0020385601002403002078030020C003002028000020C2
:201FC000C403002068560100645601004360CA699A4205D38A6902600B67CB61002070474C
:201FE00001F1280202608B6700207047F0B504680E7A002C00F07284A4F212347C2C00F279
:20200000C1827C2C00F2BE82DFE814F074020003DE02CF02C7022A0307032303BC02BC020C
:20202000BC02BC02BC02BC026702D702BC02BC02BC02BC02CC010F03E602BC02BC02BC026D
:20204000F401EE038C03BC02BC02BC02BC02FF00CB034803BC02BC02BC02BC02BC02BC0287
:202060006402BC02BC02BC02BC0219019B039303AC035703BC02BC02C3038403B4033903EF
:202080005F03BC02BC024103DB015003ED00BC02BC023203DB00F503BD00BC03BC02BC0286
:2020A000BC02BC02BC02BC02BC02BC02BC02BC02BC02BC02BC02BC02BC02BC02BC02BC0240
:2020C000BC02C900D303BC02BC02BC026703BC02BC02BC02BC02AC00BC02BC02BC02BC0263
:2020E000AC00BC02BC02BC02BC02BC02BC027D00C002BC02BC02BC02BC02B800BC02BC0255
:20210000BC02BC02B80001240025002A00F0CD8307795755A3424FF00005057140F27C83DB
:20212000171901343D70B04D0F7D2D682D78AF4200F0B0838F7DAF4209D10025A34205715F
:2021400040F24D85254601340AB107795755DFF8A0C2A64F9CF800503F780135EDB28CF8D2
:2021600000507BE1012500240AB1077917554024AB42047140F289836C1CC6E7012400253F
:20218000002AE2D1E3E701240025002A40F031848D7D0571A34240F262830134FFE0012589
:2021A0000024002A00F03D8307791755AB424FF00504047140F27E83274602EB050C6C1C65
:2021C000FDE201250024002A40F011840624AB42047140F23F8301350C7D0471AB4240F214
:2021E00091836C1CD4E701250024002A40F003840524AB42047140F228836C1C2425A3423F
:20220000057140F27583651CE0E701240025002A00F0FA83077957554FF0000CA34280F821
:2022200004C040F29084651C0027AB4202F804C0077140F2F383541901352770F3E00125EE
:202240000024002A00F0EF8307791755AB424FF02404047140F2C183274605F1010C00240F
:2022600063455755047140F2A98325460CF101071024BB4202F80C50047140F2908325461B
:2022800007F1010C01246345D555047140F2788325460CEB04070524BB4202F80C50047142
:2022A00040F25D83254607F1010C24246345D555047140F24A8325460CF101070124BB427C
:2022C00002F80C50047140F23683254607EB040C03246345D555047140F228830CF101078B
:2022E00002F80C40BB4291F816C080F804C040F218837C1C0425A34202F807C0057140F224
:202300000B8302EB040C2F4601342425A3428CF80070057140F2FB822F46651C1755AB42F2
:202320004FF00204047140F29F82274602EB050C6C1C0225A3428CF80070057140F2DD8296
:202340002F46651C1755AB424FF00504047140F27C82274602EB050C6C1C2425A3428CF89C
:202360000070057140F2C4822F46651C1755AB424FF00604047140F26D82571901353C707F
:202380000F7D0771AB4240F2BD826C1C5755A3428D7D057140F26382171901343D70124DBA
:2023A0002D6851E001270024002A00F04082057915559F424FF00004047180F0F5827D1C2E
:2023C00039E101250024002A40F017830224AB42047140F249826C1C0225A342057140F2E4
:2023E0008C82651C04E700BFC80300201C2A00201E2A002001240025002A00F098830779EC
:2024000057559C424FF00205057180F05883671C1555BB424C7E047140F2E48202EB070C6A
:202420007D1C8CF800400024AB42047140F221826C1C0AB107795755C64D91F814C02D6870
:202440002F78BC4500F01A82DFF810E3DFF810C36F788EF8007000258CF80050BD423FD3ED
:20246000BD4F3D780135EDB23D70AE4240F2CA810925A342057140F25583651C002A00F07E
:20248000128307791755AB424FF00404047140F2B682274602EB050C6C1C8CF800700F7A38
:2024A000AD4D2D78AF4240F2AC8305EB450501F10907DFF8A0C217F805E080F804E03D44E5
:2024C0009C42CCF8005080F07E82671C002A7FF46EAFACE101240025ABE701250024CDE7F6
:2024E0000725A342057140F29281651C002A7FF45BAE96E1002A00F0EB8204791470012BBE
:202500004FF00B04047140F2238302250127D455AB420F7D077140F25B8205F1010C02247F
:2025200063455755047140F2448225460CF101070224BB4202F80C50047140F22B82254632
:2025400007F1010C02246345D555047140F213820CF1010702F80C40BB4291F819C080F820
:2025600004C040F2F7817C1C0025A34202F807C0057140F2E581171901343D70764F002580
:202580003D7072E7002303601846F0BD002A00F0F282057917460124C4E5002A00F0F282DF
:2025A00005794FF0010C0027CCE7002A00F0EC82057901274FF0000CBAE7002A00F0FF82C2
:2025C00007799446012468E7002A00F0D78207794FF0010C0025A2E75E4C002A00F0E68214
:2025E00007792468944601258CF8007024780F7DA74200F0B9818F7DA7427FF414AF0A2447
:202600009D42047180F0F5826C1C00E6002A00F0D28204790125002779E7002A00F0B0822D
:2026200090F804C0012400279EE7002A00F0C182047901250027DFF81CC1D455DCF8004065
:20264000AB426778077140F2A08102EB050C0135CAE7002A00F0B1820579174601248CE73E
:20266000002A00F08482047901274FF0000C71E7002A00F0A7820779944601246DE6002AB3
:2026800000F08E82047901274FF0000C28E6002A00F0A18207799446012436E6002A00F04A
:2026A00000821446077927700125BCE6002A00F08E820779944601243BE6002A00F0728287
:2026C000057901274FF0000CE5E5002A00F0608290F804C0012400270CE61E4C012527689A
:2026E00000241AB190F804C002F804C03C780F7DA74200F0E9808F7DA7427FF438AD0224EC
:20270000AB42047140F270822C460135002A7FF42CAD2CE5002A00F04782057901274FF03C
:20272000000CCBE5002A00F0BC8104799446012577E6002A00F01682057901274FF0000C09
:2027400096E5002A00F0458207794FF0010C002585E500BFC80300201D2A00201C2A00204B
:202760001E2A0020002A00F0308205794FF0010C002787E5002A00F00F8205794FF0010C53
:202780000027A5E5002A00F0F48105791746012404E6002A00F0218205794FF0010C002761
:2027A00083E5002A00F0F68190F804C0012500243AE5002A00F0EA810779944601248CF8E3
:2027C0000070C14FC14D3F682D7897F801C0AC4540F2148297F802C03D44A34215F80C50F6
:2027E00005716CD9651C7CE7002A00F0D7810579012700240CE6002A00F0B68104791746E1
:202800000125BCE540F2993303600120F0BD40F26D3303600120F0BD4FF461730360012024
:20282000F0BD0524AB42047144D96C1CC9E79F42027180F0B9807D1CA34C2468AB4267782E
:20284000077140F2A2800135D0E640F2553303600120F0BD40F2573303600120F0BD40F2B6
:20286000593303600120F0BD40F2513303600120F0BD4FF44F7303600120F0BD0525A3426F
:20288000057140F21781651CDBE440F2833303600120F0BD0D6AA3422D7805713FF652ACF5
:2028A00040F2893303600120F0BDA3420271B3D9013438E440F26E3303600120F0BD40F28E
:2028C000723303600120F0BD0324AB4204713FF61BAF40F2773303600120F0BD08240471EC
:2028E000002B7FF407AE40F2123303600120F0BD40F2563303600120F0BD40F252330360D7
:202900000120F0BD4FF4567303600120F0BD4FF4547303600120F0BD40F24F330360012039
:20292000F0BD4FF4537303600120F0BD40F24B3303600120F0BD40F24A3303600120F0BDEF
:2029400040F2193303600120F0BD40F2493303600120F0BD4FF4467303600120F0BD4FF479
:20296000527303600120F0BD02249D42047180F0F4806C1C40E540F2173303600120F0BDA9
:2029800040F2453303600120F0BD4FF44A7303600120F0BD40F2163303600120F0BD4FF43C
:2029A000517303600120F0BD40F2273303600120F0BD40F2153303600120F0BD40F2433312
:2029C00003600120F0BD40F2263303600120F0BD4FF4457303600120F0BD40F242330360D4
:2029E0000120F0BD40F22E3303600120F0BD0779BCE40779CAE40779A4E407798EE440F2CB
:202A0000213303600120F0BDA342027140F29B80013400259C420571C0F0938040F2353381
:202A200003600120F0BD2424AB420471D5D96C1C00259C420571C1D2013410259C420571BB
:202A4000ADD2013401259C42057199D22C4405259C42057183D2013424259C420571BFF415
:202A600074AF013401259C420571BFF464AF2C4403259C420571BFF459AF01348D7D057162
:202A80009C42BFF44EAF01340425A34205717FF643AF01342425A34205717FF638AF651CD2
:202AA00094E40125BFE40424AB420471A7D90F7A6C1CF5E440F2413303600120F0BD40F2D8
:202AC0002D3303600120F0BDC80300201E2A00200B24012B04713BD902240D7D05719C422A
:202AE000BFF476AF01340225A34205717FF661AF013402259C420571BFF44CAF0134022508
:202B0000A34205717FF637AF01344D7E05719C42BFF420AF013400259C420571BFF410AF09
:202B200001342BE54FF4487303600120F0BD02259C420571C3D201344D7E05719C42BFF40A
:202B400051AF651C6FE44FF44D7303600120F0BD40F2133303600120F0BD4FF44B73036060
:202B60000120F0BD012468E70125FFF735BB0124CBE7012413E40124FFF7D5BA0124B2E7AC
:202B80000124C8E70124BAE70124B2E7012418E6012479E701243CE7012469E70124CBE7A1
:202BA00001246BE7012452E701245BE7246801251CE5012540E601248FE70124DEE43746DB
:202BC00001246DE40124FFF719BB01243AE7012402E401242CE701245CE701243CE740F225
:202BE0008E3303600120F0BD4FF45F7303600120F0BD40F2333303600120F0BD00231B781E
:202C0000FFDE024A002313601B78FFDEC803002070B90B681A7B202A01D0062070471A4611
:202C200052F80E1F9961918892799A7799837047032070474360CA699A4210D38A6910B4F5
:202C40000260C8690C6FC01A1C441A44C86100380C6718BF01205DF8044B8A61704701F1CA
:202C60002802026000208B67704700BF2DE9F0470B7888B00D4606460E2B14D8DFE803F0BA
:202C800008180808130D281313181308080808000024204608B0BDE8F0874B78DA0930D146
:202CA0005B09012B4CD00624204608B0BDE8F0870368002403F134022046C3E91E44C3E92B
:202CC00020445A671C845C62DC6208B0BDE8F087027A8B78002A00F06581817A0930002983
:202CE00000F05E81F17A415C9942D1D01B061ED4EF7807F0FD03012BCAD0002F65D00324BF
:202D0000C7E713F0600FC3F3411200F09180012AC9D18B78212BC6D1B1F80720072AC2D14A
:202D20000168681C183100F073FA0446B1E7EC78002C00F09D80032C14BF03240024A8E7A5
:202D40008B780768202B00F09B80222BABD1B1F80730002BA7D1B1F8035097F820303D84C3
:202D600005F0010203F001039342154690D0C3691BB1C2F10301C9B29847002D88D1337A98
:202D8000012B40F20B81737B06F10C04002B00F00381B37BE05C08F03BFA337A012B40F213
:202DA000FD80737B012B40F2F780B37B23442C46587808F02DFA07F13403C7E91E55C7E9DB
:202DC00020557D62FD627B6763E73568012A05F10C0140F2DF80727B012A06F10C0340F268
:202DE000D7800691B27B704905911344AC6A93F80180002C60D1EA6FEB6AAC67C5E91F42C3
:202E0000002B00F0B480296B1846002205F1240383E803004046EA6205A9FEF733FD0446D5
:202E2000F369002B3FF435AF30460021984730E703F01F03012B7FF436AF8C78062C7FF425
:202E400032AF05A8039200F0D5FC03AA00920746EA78297930463B46FEF7E8FA05283FF4D0
:202E600018AF039A3946681C00F0D2F9044610E7F369002B3FF40CAF30460121984708E714
:202E8000B1F80720072A7FF40EAF3B73B1F80730DBB27B7300200E37CDE90573079000F0DE
:202EA0008BFF002005A9FEF7D9FC0446002867D0002000F089FFECE6D5F88490686A4C4599
:202EC00028BF4C4605F1340A2246514612F000FAE86FEA6AEF67A9EB04030AEB040104446C
:202EE000C5E91D13C5F88040002A43D005F12C0797E8030005F12404002284E80300EA6294
:202F0000002B3BD091461BE0696F686A12F0E0F9D5E91D32A96AC5F880100B44521AC5E94E
:202F20001D32F36913B1002130469847EB6A13B397E8030084E80300AB6FC5F82C90EBB171
:202F4000AA6A9342E0D2696F686A1A4612F0C0F9D5E90932A96FE967521A0B44C5E909320C
:202F600053B1404605A9FEF78DFC044658E700236B6255E700236B62002451E76B6AEFE7EF
:202F80000A4B049603A9039300F020FC04468FE73B78FFDE7B78FFDE2B78FFDE6B78FFDE94
:202FA0000B78FFDE5378FFDE352C0000112C000010B503681C8CE40784B015D50B46017ABE
:202FC000012916D9417B00F10C0481B1817B605C91060CBF0124002401A9CDE9013203945C
:202FE000FEF73CFC04B010BD082004B010BD0B78FFDE00235B78FFDE0368D3F880007047DA
:20300000F0B50468238CDB0783B022D50546002016460F4600F0D0FEA26F42B9636AE3B19D
:203020001124002000F0D0FE204603B0F0BD964228BF1646616F3246384612F049F9D4E9D5
:203040001D239B1B3244C4E91D23C4F880600024E7E70824204603B0F0BDC4E909762A7AC7
:20306000012A12D9697B012905F10C020FD9AB7B0849009113440C34587801946946FEF798
:2030800001FC041E08BF9224CBE75B78FFDE1B78FFDE00BFCD1F0000002070472DE9F04FEB
:2030A0004B6885B0CDE900020C46002B71D007F0D5FBE568019B9D4228BF1D468146002DE5
:2030C0007CD04FF0000A5646D3464FF00108D4E90113AB421F4628BF2F46E9B13A4609EBD1
:2030E000060012F0F5F8D4E90223D21BDB1BC4E90223C4F804B0ED1B3E442AB3002B08BF7B
:203100004FF00008002DE2D1009BC3F800905E60404605B0BDE8F08FABB120463B4650F8FA
:20312000101B4A68D2F804A009EB0602D047D4E90223D21BDB1BC4E90223ED1B3E445AB105
:203140004FF0010ADAE7E368BAF1000F04D15BB99846002DBBD1D7E7226812681268226021
:203160004FF0010A002BF3D02168F1B1CDF808B003E0A36821680133A3604B6800225F6825
:2031800002A80123B8470028F3D12061002D9ED1BAE70B681B681B68002B88D18B68002B9D
:2031A00085D1036043609846B2E76160002EABD0019BB34288BF4FF00008A5E72E464FF074
:2031C0000108A1E7054B0528187004D0044A137823F0020313700348FEF7F2BB1F2A0020BB
:2031E000202A00209056010008B50020FEF7CAFABDE808408020FEF7C5BA00BF08B500204B
:20320000FEF7D4FABDE808408020FEF7CFBA00BF70B5C38893421E4628BF1646934284B02C
:203220000D4612D8002400200394CDE9015600F0C3FD01A98020FEF711FB044688B10020CB
:2032400000F0C2FD204604B070BD8020144607F0F9F9B4FBF0F202FB1044B4FA84F4640920
:20326000E1E707F0D5FB80280BD1094A094B92E8030083E80300002000F0A6FD204604B0DC
:2032800070BD002000F0A0FD1024204604B070BDC8560100F00300202DE9F04F0B780E2B96
:2032A00089B018D8F3B1013B0D2B1BD8DFE803F01F0E281A354C1A1A1A1A0E666F07B24BE1
:2032C0001B78012B02D00120FFF77CFF0024204609B0BDE8F08F852B04D1AB4B1B78032B28
:2032E00000F040810624204609B0BDE8F08FA64B1B78032BF6D00320FFF764FF0624E6E7C5
:20330000A24805F069FB0028E0D0A14B01221A60BFF36F8FBFF34F8FD8E705230DF11500CF
:203320008DF8143007F0DCFA9DF81530994E002203F01F043260032C00F2B980DFE814F047
:20334000E800B90099008D00C87803280D46C9D0904E3368002B00F00381002271683260AA
:203360009847044600287ED13368002B00F00581AB78002BAAD107F0D5FAA8E7824B1B78F3
:20338000002BA3D00020FFF71DFF00249FE74FF08043D3F8383413F0010F7B4B1B7806D038
:2033A000022B93D00220FFF70DFF00248FE7012B89D18BE7BDF81B30002B00F0D880092B20
:2033C00028BF09239946FEF7F3F90546002800F0DB81BB464FF0090ACDF80CB04FF0000840
:2033E00001E008F101086A68012357682946002203A8B8470028F4D12A682B7A15681C44F9
:20340000C244E4B2002DE7D1634D644928464A4611F05EFF2C71A5F802A0FEF7ABF918B134
:20342000EB7943F02003EB71FEF7C2F95C4BBDF81B2018600020C3E90159DA6000F0BCFCAF
:2034400058498020FEF71EFA0446002800F09F81002000F0B9FC062C05D105A8FEF7E8F94C
:203460000446002C73D007F0C9FA204609B0BDE8F08F9DF81900020707D005A9FEF7C2F9AA
:2034800006280446EDD19DF8153013F0600F0ED19DF816303C4A9DF819401278012B00F0D6
:2034A000B980032B00F0A680002B00F0C6800624D9E79DF8190003A9FEF780F90546002809
:2034C00059D09DF80C1005AAFEF798F906280446C7D19DF8152012F0600FC4D12A4B9DF8F3
:2034E0000C101B78D20940F014819DF816200B2AB9D1052B40F0B280BDF81730FF2B00F249
:20350000FC809DF817202846FEF7D0F90446A8E713F0600FC3F341179FD1DB0948D19DF8DC
:203520001630032B00F09C80092B00F0A880012B93D1BDF81730012B8FD1FEF71BF9002876
:2035400000F0D980184A137823F00203137033686BB107F05DFA044600287FF4B7AE0AE75A
:203560000E2480E70420FFF72DFE0624AFE607F03BFA0024ABE6102475E70C4B1B68082B30
:2035800033D007F031FAA2E61F2A0020F80300205C700240F0030020FC03002094560100CF
:2035A000D8030020D0560100202A0020300100109DF81620062A00F08780082A73D0002AAD
:2035C0007FF44BAF7B497C4B09781A80890744BF02221A7078490DF115000222FFF718FE93
:2035E0000446062C7FF43DAF37E7744B1B68002BC7D16BE625073FF55AAFBDF81730002BEC
:203600007FF455AF052A01D0200727D1204607F029F99CE721073FF54AAFBDF81730002B96
:203620007FF445AF052A01D0230717D1204607F047F9204607F082FC89E7052A01D02707FB
:203640000CD1204607F01AF95B49034602220DF115000B80FFF7DCFD044602E7082402E757
:20366000BDF81730012B7FF4F8AEFEF783F8002841D0504A137843F00203137067E7504C96
:203680002378043B012BE9D89DF81730BBB3012B33D1FEF767F92378052B3FF458AF05206A
:2036A000FFF790FD53E7464A1278052A47D0042A7FF4D3AE404B1F703F490DF115000122F3
:2036C000FFF7A6FD04468CE79DF81830022B3FF471AE032B36D0012B7FF4BFAEBDF81B30F8
:2036E000002B3FF444AF37490DF115001222FFF78FFD044675E70F24B5E60724B3E6FEF703
:2037000049F92378042B3FF422AF0420FFF75AFD1DE79DF816705FB30A2F7FF4A4AE052BC9
:203720009CD128460192FEF717F92349019A03460B700DF11500FFF76BFD044691E61E4AB1
:203740001370B9E7BDF81B30002B3FF410AFBDF819109DF8170000F01DFB014600283FF4F5
:203760007CAE0A780DF11500FFF752FD044638E7052B7FF473AF10490DF1150002220F80F8
:20378000FFF746FD04466CE64FF0090A3CE607F03FF9802808D10C4B93E8030086E80300EA
:2037A000204600F011FBD2E6204600F00DFB102459E600BF202A0020FC0300203401001091
:2037C0001F2A0020B4560100C856010038B505460C4607F01DF9A84207D194E80300044A30
:2037E00082E803000023184638BD1023184638BDF003002008B1402303600148704700BF0F
:20380000FC030020F0B40D7A0DB101F109050468002C59D06FF4AB763444142C00F24A81E6
:20382000142C00F24781DFE814F05400E700EE00F500FC00030109011001170145014501E6
:203840001E0125012C0145013B0033012700390115003F0101250024002A40F0DB818A8A77
:20386000AB424FEA1222027140F2338140F26D1303600120F0BC704701250024002A40F058
:20388000CD814A8AAB424FEA1222027140F226816C1C8A8A0271A34240F27B81651CDEE7F8
:2038A00001250024002A40F0B7810A8AAB424FEA1222027140F217816C1C4A8A0271A3424D
:2038C00040F26C81651CDCE709240471002B00F0F680002A00F0A48104791470012B4FF0A7
:2038E0000404047140F2F0800227012694559F422D78057180F089817E1C0024B342D5551D
:20390000047140F27D812546771C0024BB429555047140F2708125467E1CFF24B342D5551A
:20392000047140F263812546771C0124BB429555047140F2568125463E190124B342D5556E
:20394000047140F249812546371900249F429555047180F03C8125467E1C09249E42D5556E
:20396000047180F02F812546771C21249F429555047180F0228126467C1C09259C42D655E1
:20398000057180F015811619013435700E7C0671A34240F20881651C16550E8A9D424FEA65
:2039A0001626067180F09F8057196C1C3E708E7C06719C4280F0F280651C16554E8A9D423B
:2039C0004FEA1626067180F0898057196C1C3E700E7D0671A34240F2DC80651C1655898A68
:2039E0009D424FEA1121017173D22A44117040F26D13036001203DE7002A00F0B3800479B3
:203A00000127002672E7002A00F0A58005790126002772E7002A00F097800579012700269E
:203A200073E7002A00F0898005790126002774E7002A5DD005790127002676E7002A00F048
:203A40009E8005790126002777E7002A00F0958005790127002678E7002A00F08C80057920
:203A60000126002779E7002A00F083800579012700267AE7002A00F08A800679012400275F
:203A80007BE7002A00F081800579164601247CE7002A78D006791746012487E7002A70D0FC
:203AA00006791746012492E7002A3FF4DFAE017911709CE7002303601846F0BC704740F2AB
:203AC000571303600120F8E74FF4AC7303600120F3E740F26B1303600120EEE740F26913A2
:203AE00003600120E9E740F2671303600120E4E701240122A342027173D914440122A3422B
:203B0000027169D9144400229C4202715FD2013409229C42027155D2013421229C42027153
:203B20004BD2013409229C42027141D201340A8A0271A34237D9651CB7E60124FF229C4231
:203B4000027153D20134D4E701240022A342027151D90134F2E701240022A34202714FD93F
:203B60000134F2E701242A780271A3424DD90134F2E70124D1E70124CAE70124C3E701243D
:203B8000BCE7012485E6012497E60124CFE70124C8E74FF4B573036001208EE74FF4B473D3
:203BA0000360012089E74FF4B3730360012084E74FF4B273036001207FE740F2631303605C
:203BC00001207AE74FF4B1730360012075E740F25F130360012070E74FF4AF7303600120B4
:203BE0006BE740F25D130360012066E74FF4AE730360012061E740F25B13036001205CE769
:203C00004FF4AD730360012057E740F259130360012052E70679E1E60679BDE60679CCE68B
:203C20000422012B02717FF64FAF02249BE700BF0B780E2B0BD8DFE803F0080808080A0C56
:203C4000080A0A0A0A08080808000020704706207047F0B54B78DA0985B00C46064611D160
:203C60005B09012B02D0062005B0F0BD8C78002CF9D102681373036A002B3AD02146984788
:203C80002046F1E713F0600FC3F3411215D0012AE9D18B78072B07D0082BE4D1F268481CEF
:203CA000B169FFF7B5FADFE7B1F80720182ADAD1C169601CFFF7ACFAD6E703F01F03012B82
:203CC000D1D18D78062DCED103A80292FFF792FD02AA00920746E278217930463B46FDF73D
:203CE000A5FB0528BFD0029A3946601CFFF790FABAE71846B8E700BF70B54FF0805286B088
:203D0000D2F8A830D2F8A42000926FEA83436FEA93430B4A0B4E9BB202A80D210BF02EFE99
:203D200002AD002404E015F8013B06F8013B013402A811F007FB8442F5D306B070BD00BF37
:203D4000EC560100502A002038B5114B53F8204023780BB9A01C38BD0020FFF74BFD21788B
:203D600091B12246C4F101055319DCB2234620F8141012F8011F0029F6D101335B00DBB209
:203D800043F44073038038BD40F20233FAE700BF5457010040B1052808D8054A105C28B17C
:203DA000044B53F820300BB1FFF7CEBF002070476C5701005457010072B6024A1368013370
:203DC000136070473C040020034A1368013B136003B962B6704700BF3C04002010B5044629
:203DE000006830B1002107F00DFE54F8040F0028F8D110BD2DE9F043038883B0044643B1F5
:203E0000B3F5867F0CD1822910D0012003B0BDE8F0834FF486730120238003B0BDE8F083D6
:203E200000230380032003B0BDE8F08301F0EEFABFF35F8F19491A4B0E6800220A601F7815
:203E40001A70FFB2BFF35F8F164D01F0E3FA28680028DED0DFF85090DFF8508003E055F862
:203E6000040F0028D5D090F84A3026FA03F3DA07F5D590F8493047FA03F3DB07EFD500F0D1
:203E8000CBFD0028EBD02B68D9F80020009218464246022100F03CFDE1E700BF5004002034
:203EA000212A002080000020D42B00204D3F000010B50C4A90F84B30126882B001330092BC
:203EC000044680F84B30084A03468021203000F01FFD064B19782246002002B0BDE81040FC
:203EE00007F014BED42B0020B13E00009536002010B4094A094C136819431160217803466A
:203F0000012202FA03F30B43DBB2237004485DF8044B07F029BE00BF50040020212A0020B2
:203F20008800002010B5044690F84A1090F8490001F02EFA10B994F8480010BD01280ABFA2
:203F400094F84800002080F0010010BD70B582B0044600F061FD08B902B070BD04F1200685
:203F6000304600F059FD05462046FFF7DBFF01280FD00028F0D1002DEED1304600F032FD92
:203F80000D4B22462846197802B0BDE8704007F0BDBD002DE0D0094B094A1B68009300252B
:203FA0003046234684F84B507E2100F0B1FC054B28462246E7E700BF94360020D42B002013
:203FC000B13E000096360020F8B507F013FD304B304C187007F00EFD2F4B304F187007F059
:203FE00009FD2F4922682F4B08700025FF2139727B60FD60002A42D02B4E09E091F84A002E
:20400000F9683A72834054F8042F0B43FB60B2B392F84A3092F84910526C03F01F0343EA5C
:2040200041131F2BC6BF03F01F0331464FF0A04103F5E07342F08C0241F82350236893F8E4
:204040004A1093F8490001F061F9226892F84A3092F8490003F01F0343EA4010012104F0DE
:204060002DFF2168387A91F8492082424FF00103C4D0FF28C2D054F8042F002AC8D10B48FE
:20408000002107F0BFFCBDE8F840044801F094B9963600208000002094360020400400200C
:2040A00095360020F13E0000000300508800002030B5174B83B000221A6004F0BFFC00BB6B
:2040C000002004F0D7FC134B134A93E80300FF250090ADF80410062400231048ADF80050B9
:2040E00069468DF802408DF8043005F05DF958B901210A4805F0ACF9084805F09DF903B099
:2041000030BDFDF72BF9DBE7FDF728F9F0E700BF54040020A05701004D410000A85701002F
:20412000014B1868704700BF5404002008B5064A13680133136000F085FD00B908BDBDE801
:20414000084000F05BBD00BF54040020042800D07047FFF7EBBF00BF014B1868C00970477A
:20416000540400202DE9F04107F05CFBFFF7A0FF09F090FF07F068FC00216548654FDFF861
:20418000E881654D654C664E07F03CFC00F0B2FB0FF052FD0BF00EFC07F04CFB07F002FD4C
:2041A000604B1B6898477B689847D8F804309847A979EB79226803EB0123022A338022DC4E
:2041C000594B29686A6819605A605848002107F019FC4FF0FF300DF0A7F92368022B0546CA
:2041E0007EDC07F049FB5248FFF7F8FD0FF04EFD07F030FC04460FF051FD14F0FF0FF7D1C7
:2042000007F040FBF4E74B4A4B494C4807F056FB4B4807F0B9FC2368022BD1DD454A4649C9
:20422000464807F04BFB474B4748196807F046FB2368022BC4DD3F4A3F49404807F03EFBB7
:20424000D8F80010414807F039FB2368022BB7DD384A3949394807F031FB39683C4807F0BA
:204260002DFB2368022BABDD324A3349334807F025FB38484AF6CD3107F020FB2368022BC4
:204280009EDD2C4A2C492D4807F018FB32481A2107F014FB2368022B92DD264A2649274809
:2042A00007F00CFB31882D4807F008FB2368022B86DD204A2049214807F000FB284807F028
:2042C000FDFA2368022B7FF77BAF284601F0A8FA2368022B7FF774AF0A2007F053FC6FE777
:2042E000144A1549154807F0E9FA1E4807F0E6FA2368022B7FF775AF284601F081FA2368D7
:20430000022B7FF76EAF0A2007F03CFC69E700BFCC000020C0580100802A0020EC0000209A
:204320000C2A0020F45B0100CC2E00200C020020745B0100B0570100B8570100C05701008F
:20434000D05701007C5D0100085801001858010024580100305801004C5801006C58010019
:204360007C58010094580100FC5D010030B590F82D50012D83B0044611D91F2507F07CFCEF
:20438000094BB0FBF5F11B68009301FB1501074A234604F10C0000F0BBFA03B030BDE91C0B
:2043A00001258D40013DE9E7D42B0020314400002DE9F0470D468B6892F82C708146506B2D
:2043C000D3E90068144601F0F7F9686807F026FCA968134801F0E4FA1248294601F0E0FAC6
:2043E000636B1B6873B10023A3852046FFF7BEFF36B13A46494640463346BDE8F0471847B4
:20440000BDE8F08704F10C0000F0ECFA2146064801F0D2F92146054801F0C2FAE8E700BF49
:2044200098000020B0000020C0040020A4000020F8B12DE9F047436B1D6882B00446ADB149
:20444000686807F001FC63490C2007F0D3F90121072007F0C3F900F059F900280ADAAB68A0
:2044600023B1052022462946FFF7A2FF02B0BDE8F087704707F00CF9DFF85C8190F8029086
:20448000D8F8047007F004F9064607F00BF901463046B84707F0BEF9D8F818600746B047A7
:2044A00070BB002F50D1D8F81CA0D04740BBD8F8087007F0F7F8B84700285CD002281FD049
:2044C000AB68002BD2D00420CCE709F017FE6FF028031E1A03E009F011FEC64202D5D04774
:2044E0000028F8D0D04700285DD0D8F81030032101A89847032803D19DF806304B452AD050
:20450000AA68002AB2D094F82D300133DBB2052B84F82D3094F82C3006D90133DBB2002181
:2045200084F82C3084F82D10127A9A4205D8224629460120FFF73CFF98E72046FFF716FF8C
:20454000686807F065FB91E7D8F8086007F0AAF8B0470028B2D1AB68002B87D094F82C30CC
:2045600000200133294684F82C3084F82D002246FFF71EFF7AE709F0C1FD6FF018073F1A8D
:2045800003E009F0BBFDC74202D5D0470028F8D0B047002899D1D047002896D1D8F814305D
:2045A0009847002891D0A96800293FF45FAF94F82C300133DBB2002284F82C3084F82D20AC
:2045C0000A7A9A42B9D8224629460220FFF7F0FE4CE700BF802A0020F45B01002DE9F041BA
:2045E00005460D200F4607F00DF9064601F048F901210B2007F0F2F8374B1C6814B914E07E
:20460000246894B13146201D01F082F80028F7D0606B01F0EBF807281EDDDDB138462B4675
:204620000122BDE8F041062118472C4801F09CF904460028F1D03146201D01F063F80023AB
:2046400004F13002C4E90C322348A385214601F067F8DDE7BDE8F081214801F085F9064600
:2046600060B3204801F080F9B06018B307F0AEFA7060D8B10520D6F8088007F0B5F8C8E9B2
:20468000005710F0FF0006BF082388F8083088F80800606B314601F043F8636B1B689E42F5
:2046A000D8D12046BDE8F041FFF760BEB1680D4801F076F90A48314601F072F9606B01F052
:2046C00095F80028A9D12146034801F075F82146024801F065F9A0E7C0040020A40000206C
:2046E000B00000209800002008B5054801F02AF9044801F027F9BDE80840034801F022B9B3
:20470000B000002098000020A400002010B501210B2007F063F8024BBDE810405B68184785
:20472000F8580100014B9B68184700BFF8580100014B1B6A184700BFF45B0100014B5B6A1A
:20474000184700BFF45B010010B50D4B82B01B6898470C4B04469B6A01A9192098470128A9
:204760000BD0002C0198B8BF15248028D4BFC4EB0000C4F1800002B010BD002002B010BDAC
:20478000F8580100F45B0100FFF728BF00B583B006F082FF032802D103B05DF804FBFFF741
:2047A000C1FF0028F8DB0D2007F02CF81F4900F0AFFFE8B10C2007F025F81C4900F0A8FF1B
:2047C0000028E9D101F066F8B8B1072007F00CF80028E1D00223ADF8043006F059FF144B99
:2047E0008278DB688DF80620032101A89847D3E707F010F80028DDD1CEE701F071F8072060
:2048000006F0F2FF18B90B4B9B689847C4E70223ADF8043006F03CFF054B8278DB688DF8BC
:204820000620032101A89847EDE700BF802A0020F45B0100FC5D010030B50D4C83B0A56A1F
:2048400069461920A84748B901A90420A84738B101F00EF8FFF748FF236A984703B030BD9A
:204860000199E36A21F00201019104209847EFE7F45B0100F8B5038805462BB14A2B14D1C9
:20488000882916D00120F8BD174B1C6834B1A168201D00F0B9F92468002CF8D1134B0122F6
:2048A0001A704A232B800120F8BD002303800320F8BD0D4B1C68002CF3D0231D9A4205D046
:2048C0002468231D002CECD09A42F9D10648084E214600F071FFD4E90523376832600BB141
:2048E000E06998473760DCE7A0050020222A0020D42B0020034A044B0448002111701960E3
:2049000007F080B8222A0020A0050020BC00002070B50E4C049E25784661C0E906230446DA
:2049200035B9A1600A482146BDE8704000F0F8BE084D094B2E682B60043000F065F92E60FA
:2049400021460348BDE8704000F0EABE222A0020A0050020D42B0020BC00002070B50C4B10
:204960001B7804462BB921460A48BDE8704000F0D7BE094D094B2E682B60043000F04EF9AD
:204980002E6021460348BDE8704000F0C9BE00BF222A0020A0050020D42B0020BC00002020
:2049A00070B50C4B1B7804462BB921460A48BDE8704000F0B5BE094D094B2E682B6004304A
:2049C00000F036F92E6021460348BDE8704000F0A7BE00BF222A0020A0050020D42B0020BF
:2049E000BC00002010B50A4B1B7804463BB9C0E9033321460748BDE8104000F0DDBE0430A7
:204A000000F028F921460348BDE8104000F0D4BE222A0020A0050020094B1A7842B9094BF6
:204A200001E0984209D01B68002BFAD1012070470069B0FA80F0400970470020704700BF78
:204A4000222A0020A005002010B50446C0B20FF0BFF80A2C01D0204610BD0FF089F82046CE
:204A600010BD00BFF8B588B10F46461E002500E0013516F8014F20464CB1AF4207D00FF048
:204A8000A7F80A2CF4D10FF073F8F1E705460FF06FF82846F8BD00BF10B5FFF741FB0B4B5A
:204AA0001A68D2E9003192680B44191A52B1D2E9003423441B1A9268994228BF1946002A39
:204AC000F5D14318024A136010BD00BFA8050020A40500202DE9F843038805465BB3592B1B
:204AE0002CD187292FD0822920D12C4FDFF8B4803C684FF00009CCB1002603E0A3682646FF
:204B0000A3B11C4620460CF0BDFA0028F6D0E0682246882106F0FAFF03464046002B2AD09C
:204B200007F022F8A3682646002BEAD159232B800120BDE8F883194A1360F7E70023038045
:204B40000320BDE8F883154F3968002019B9EDE789680120D9B1CB689342F9D000B1396090
:204B60008B68002BE2D0D868904207BF9B688B6019469B68F5E7E360A3686EB1B3603B683E
:204B8000C4F808902BB1FFF787FF3C68B3E73960CCE7034A1360C9E73B60F1E7A80500202F
:204BA000A4050020CC00002010B50446104806F0DBFF1049E3680A684BB142B194420FD04F
:204BC000134601E09C420BD09B68002BFAD10A4BA2601B68E3600C60BDE81040FFF75CBF5A
:204BE000054B1B68E360BDE81040FFF755BF00BFCC000020A8050020D42B0020014806F0CA
:204C0000B3BF00BFCC00002010B504460CF01EFA2046BDE81040FFF7C7BF00BF10B50446AF
:204C20000CF01CFA2046BDE81040FFF7BDBF00BF10B504460CF020FA2046BDE81040FFF760
:204C4000B3BF00BF024B1868003818BF01207047A805002010B5124B19688142044614D00E
:204C60000B462BB19A68A24206D01346002BF9D10023C4E9023310BDA2689A6049B1FFF737
:204C80000BFF0023C4E9023310BD82681A60002AF5D1044B00221A600023C4E9023310BD27
:204CA000A8050020A4050020014B1888704700BFDC02002000283ED0037A022B30B410D05A
:204CC0000378022B15D00379B3B10024C37913F0030318BF012301B10C6002B1136030BCD3
:204CE0007047C579447A037965B90CB9012BF2D0DBB100231C46EEE7447A14F0030418BF2E
:204D00000124E3E7C4B1032D37D1032C2ED0022C24D143BB022D2DD00123032D24D1A4F19F
:204D20000204B4FA84F46409D5E7023C012C8CBF00240124CFE770474BB9022D08BF012394
:204D4000EAD1A4F10304B4FA84F46409C3E7032D01D0022D02D123461C46BCE7002BC8D18A
:204D6000022DDAD1EDE701230024B4E7002BC0D10123D4E701231C46ADE7022DC7D1002BFB
:204D8000F1D1022C4FF00103DBD11C46A3E700BF30B500230B608B80437DDB075CBF01232A
:204DA0000B70037E012B83B00D46044623D901AA694604F11000FFF77DFF009B0BB10223B2
:204DC000EB70019B0BB102236B70E37D03F00303022B03D0032B14BF00230823AB70637E7C
:204DE00003F00303022B03D0032B14BF002308232B7103B030BDC37D13F0030309D0437E4C
:204E000013F0030305D0C38B828B9B1AB3FA83F35B092375CBE700BF02280CBF01230723D1
:204E20000B441A78FF2A184603F1FF3303D18142F7D1012070470020704700BF30B583B0FF
:204E40006946FFF7A5FF9DF800309DF801509DF802409DF803109DF804209DF80500023357
:204E60002B4423440B441344184403B030BD00BF70B4437882780578C478DB00120102F089
:204E8000100203F008031343027905F0070564012B4304F020049201234302F040021343C2
:204EA0000B7043798579467AC479027A03F001036D0043EA861305F00205A0002B4300F020
:204EC0000C001201034302F03002134370BC4B70704700BF70B582B00D4604466946FFF7FD
:204EE00057FF04F110002946FFF7C2FF9DF80030012B04BFA37EAB709DF801300CBF03208D
:204F00000220022B06D1A38B2B54A38B421C1B0AAB5402309DF8026056B1731E23442918A5
:204F20001A7801F8012BA34203F1FF33F8D130449DF80330022B06D1E38B2B54E38B421CED
:204F40001B0AAB5402309DF8046056B1F31D23442918073413F8012901F8012BA342F9D1FF
:204F6000304402B070BD00BF30B40278437802F00700C2F3C005C2F300140870C2F340104D
:204F8000C2F380124D708C7003F00105C3F34004C8700A71C3F38100C3F301129B094D7109
:204FA0008C71C87130BC0A724B727047012943DD2DE9F04186B00F4603A914460546FFF77C
:204FC000D3FF03AB03CB9DF811201B882383206161616AB3AE1C03A802AA01A9FFF76AFEEB
:204FE0009DF81380B8F1000F43D0029B002B31D1B8F1020FA38367D0B8F1030F4DD09DF870
:205000001580B8F1000F2CD0019BBBB9A38BE383B8F1020F4DD0B8F1030F31D0701B3B1A30
:205020008742C4E90E6300DA002006B0BDE8F081AB78A376EE1CCEE700207047717816F8FA
:20504000023B029A03EB01239BB2E383002ADFD1A383DDE7727816F8023B03EB02239BB259
:20506000C6E71E4904F1080000F04CFBA4F81E80D4E71A49204600F045FBA4F81C80BEE71D
:2050800006F10800034604F1080213F8011D02F8011BB342F9D10646C0E706F10800034690
:2050A000621E13F8011D02F8011FB342F9D10646A5E70A4904F1080000F024FB73782372B7
:2050C00016F8023B6372A9E70449204600F01AFB7378237016F8023B637090E704590100F7
:2050E00030B591B006F0C4FA044606F0D5FA6A4601462046FFF75AFF00283ED0044606F0A5
:205100009BFAD0B39DF810100B2006F067FB9DF81310072006F062FB9DF817308BB1BDF840
:205120001C50FFF7C1FD854205D0BDF81C204FF6FF739A4221D19DF817006946FFF76CFE82
:20514000B0B102A90C2006F055FB9DF815303BB14FF6FF71062006F041FB204611B030BDEA
:205160009DF81A10062006F039FB204611B030BD69460D2006F03EFBE3E74FF0FF34ECE7F2
:20518000F8B505460B2014460E46A84700232074A37496B3E37463750820A84700270123A7
:2051A0002376A07567740620A847A076FFF77CFDE0830920A84701280CBF3B4603236376DD
:2051C000FFF772FDA0830A20A84701281AD066B90323E375637E022B0CD0E37DA3F102039B
:2051E000B3FA83F35B092375F8BD0223E375637E022BF2D101232375F8BD0720A84766752B
:20520000E074C9E7E775E5E730B591B00546FFF74BFD4FF6FF74A0423AD0402200216846DE
:2052200010F07EF806F0F6FA6A4601461A48FFF7A7FF06F0EFFA18B3ADF800400C2006F06C
:20524000E1FA014602A800F05DFA06F011FA0E9006F022FA034668460F93FFF7EFFD0446C5
:2052600015B9204611B030BD06F0B6F980B106F00FFA01466846FFF72DFE204611B030BD4D
:205280000D2006F0BFFA0146684600F03BFAD5E74FF0FF34E5E700BFE9B700000120FFF7A8
:2052A000B3BF00BF0020FFF7AFBF00BF0649074A074B9B1A03DD043BC858D050FBDC0BF0A2
:2052C00059F9FCF711F80000F860010008000020E8020020FEE7FEE7FEE7FEE7FEE7FEE797
:2052E000FEE7FEE7FEE7FEE700F01F030121C0F34710994000F066B808B503F043FD00B154
:2053000008BDBDE8084003F0F3BC00BF30B583B01446022301F01F0100228DF8063014F0F1
:205320000C0341EA4015ADF8042006D0042B25D0082B27D00C2B02D103238DF8043014F004
:20534000030304D0022B15D0012B02D103238DF805300E4A01A9284603F01EFD230628466D
:2053600003D403F017FE03B030BD012103F0A6FD03B030BD01238DF80530EAE701238DF8FE
:205380000430DCE702238DF80430D8E7E952000001F01F0141EA40101F28CABF054B4FF053
:2053A000A04300F01F00D3F8101521FA00F000F001007047000300500146014800F0B0B91C
:2053C000AC05002070B50C4B1C689CB105460E4601E0246874B1237AAB42FAD1E36816EADE
:2053E0000301F6D063682846002BF2D098472468002CF0D170BD00BFAC050020024B002239
:205400001A60FFF779BF00BFAC050020EFF3108072B6704780F31088704700BF70B41A4AFA
:205420001A4D0023012440FA03F1C90712D59178B9B11178567801F01F0141EA46111F2933
:20544000C6BF01F01F012E464FF0A04604FA01F1C6F808150133042B02F10302E3D170BC17
:2054600070471178567801F01F0141EA46111F29C6BF01F01F012E464FF0A04604FA01F124
:20548000C6F80C15E6E700BF80570100000300500E4A30B40E4D02F10C0403201378517865
:2054A00003F01F0343EA41131F2BC6BF03F01F0329464FF0A04103F5E0730332944241F854
:2054C0002300EBD130BC0F20FFF7A8BF805701000003005010B50948FFF740FA084802F0C2
:2054E0009DFC50B1064C01460B7A5B080B72204602F060FC01460028F6D110BD602A0020B3
:20550000DC0000200146014802F0B6BCDC00002080B110B50446FEF703FE2368C01AB0F55F
:20552000963F05D2207A032894BF0020012010BD002010BD0020704770B50546144689B1D1
:20554000022907D006290CD10146BDE870402A4802F092BC0146284802F08EFC0646002848
:2055600032D170BD0146244802F086FC0646002835D0FEF7D5FD337A30602344102BA8BF4E
:2055800010233372FEF7CCFD3368C01AE401B0F5963FA4B208D2337A042BB38834BF19222C
:2055A0000A222BB9B48070BDB3881922002BF9D002FB04F41149C2F1640203FB0242A1FBCA
:2055C00002325209B28070BDFEF7AAFD337A30602344102BA8BF102333720C34D2E73346B1
:2055E00005482946082202F0A7FC06460028B8D047F6FF73C380BCE7DC0000201F85EB51C3
:2056000038B50546042006F0EFF829460446214824B202F031FC38B3B0F9063047F6FF72C2
:2056200093422CD004EB840462005A251A4C818813FB052384FB0324DB17C3EB641424B208
:20564000C48081B904F15A0212B222EAE2721E2A124BA8BF1E22D201A3FB0232120902F554
:20566000807292B2828038BD034629460948082202F062FC0028F6D047F6FF73C38083888F
:20568000C480002BEFD147F6FF739C42DAD14FF48072E7E7DC0000201F85EB5189888888A3
:2056A00038B5094802F0BAFB60B1074D04462146284602F0AFFC2146284602F07BFB04465D
:2056C0000028F4D138BD00BFDC00002000B5002183B0084802F04CFB074B084A1B680093E1
:2056E000074800234FF4E131FFF712F903B05DF804FB00BFDC000020D42B0020D5540000D8
:20570000602A00200B684A6842600360704700BF08B508220FF0CEFDB0FA80F0400908BD66
:205720000368DBB110B4002400E0134699420FD01A681C46002AF8D100230B600368CBB14B
:205740001A461B68002BFBD111605DF8044B70470A686CB1226000221A60EDE700230B6094
:2057600003684BB11A461B68002BFBD1116070470260F0E70160E8E70160704730B40568EE
:205780004DB12B46002400E01346994207D01A681C46002AF8D10D6030BC016070470A68D1
:2057A0003CB1226000221A6005680D6030BC016070470260F6E700BF03689BB110B4002463
:2057C00000E0134699421A6805D01C46002AF8D15DF8044B704734B1226000221A605DF856
:2057E000044B704770470260F7E700BF03682BB100201B680130002BFBD17047184670470F
:2058000000B58BB00246282168460EF065F86946024806F053F80BB05DF804FB0C5901004F
:20582000F0B170B50024104E054654B1E3070DD5295D304606F042F8072C10D00134002C64
:20584000F4D12978304606F039F8F7E72E2006F099F9295D304606F031F8072CEED170BD57
:20586000024806F02BB800BF885A01001059010008B506F001FA014B187008BD232A002045
:20588000034B197806204A1C1A7005F0A7BF00BF232A0020F8B5FEF743FC104E0746344686
:2058A00000250C2005F0AEFF2146FFF731FF103420B90135102DF4D10020F8BD062006EB27
:2058C000051505F091FF2B7B8342F5D1A868381AB0F5206F8CBF00200120F8BD700600208B
:2058E000F8B5174E0024374635460C2005F08AFF2946FFF70DFF1035F8B90134102CF4D133
:205900000F2407EB0414254654F8100D6168A268E368A6420FC5F6D1062005F065FF3873AB
:20592000FEF7FEFB0346BB600C2005F06BFFBDE8F84001460248FFF7E5BE002CE1D1EBE7D3
:205940007006002010B504464288406800210FF0E7FC23886288A06802FB03F2BDE81040A9
:2059600000210FF0DDBC00BF30B44588ADB14368002202E00132AA420CD0194601330C78DF
:20598000002CF7D101230B700588806802FB050030BC7047002030BC70472846F8E700BF8B
:2059A00030B44488826854B18A420CD00588002301E0914208D00133A3422A44F9D14FF0D4
:2059C000FF3030BC704700234268D15C0029F6D00020D05430BC704783688B4208D84288C3
:2059E000008800FB023081422CBF00200120704700207047418849B143680020194413F87F
:205A0000012B02B901308B42F9D170470846704738B51446052940D8DFE801F0080F3A1B6A
:205A20002003BDE838401F4806F0AEB81E4806F0ABF81E4B03221A7038BD11781C4805F075
:205A40003DFF1A4B1B4805221A70BDE8384006F08BB8BDE83840184806F096B8151D2846DA
:205A60000FF070FCB4F85030A46C82B22946134805F024FF124928460FF05AFC0028DBD177
:205A8000104806F081F82046BDE8384006F07CB8BDE838400C4806F077B8BDE838400B488C
:205AA00005F00CBF1C5A010020590100242A002044590100F0000020E8590100605901001D
:205AC000905901009C590100B8590100345A0100F8B50A4E071F00F10C0464250EF050F949
:205AE00086FB0032C317C3EB621305FB1300013047F8040FA742F1D1F8BD00BF1F85EB5161
:205B00002DE9F04F0588F92DD9B0044609D0B5F5AA7F46D0EDB100230380032059B0BDE8D3
:205B2000F08F882944D0822935D1B24D2B78002B00F01281012B00F01A81032B3CD0042B00
:205B400053D0052B00F03981AB484021FFF75CF821E0AA4806F018F8A94BAA4AD879997966
:205B60005E7904909878039159780091CDE9010640211B78A44809F001FF2023A34900935C
:205B8000A14AA34BA34801F063FF9A4B9A481D704021FFF739F8F9230120238059B0BDE884
:205BA000F08F9D4BDB681BB3012059B0BDE8F08F914B9A42EFD1B8E7984B994E994F93E8DB
:205BC000070003C60023194632709248A6F1080201F0D2FF034694483B7005F0D5FF3B7848
:205BE000012B00F0FA8004232B709048FFF770FF8F488E4FDFF874A2DFF87482DFF874B2A5
:205C00008146FFF765FF8B4B06934E4657F8043B0794306800251BBB01300FF0DDF8069AFF
:205C2000D8F80030E2E802010692002B3AD1E5B1AA1E012A19D9012D00F0AF803268CAF8A5
:205C4000003047F8042C57F8043B7068043601350AF1040A08F104080BF1040B002BDBD0E0
:205C600090FBF3F00FF0B8F8D9E7734B03EBC503D3E900230FF08EF900285FD1CAF8000054
:205C8000336847F8043C032DDDD16348079C4FF4A061FEF7B9FF4FF4AA730120238059B0A0
:205CA000BDE8F08F564B58791C79D9789A785B780490CDE90214CDE90032514B514A1B7871
:205CC0005E4C402108A809F059FE5D4BD9F80C20009293E80300D9F8083020602171594848
:205CE000D9E9001205F0EAFDD9E90232D9F804100392D9F800200293CDE9002108AB524AD8
:205D00004FF4807118A809F039FE18A80FF01AFB002118AB0090CDE901113E48224601F070
:205D200067FFDBF800300133092BCBF80030A7DD0021C8F80010CBF80010A1E7DAF80030CD
:205D40000133032BCAF800309AD101220023C8F80020CAF8003093E701200BF00FFC0028A3
:205D600039D00BF011FB002835D001232B70374805F00AFF364B374918689A880860012678
:205D8000987900965A238A80887140F25B72214801F09EFE02232B70D6E6274B2549D3E9CF
:205DA0000223D1E902010FF0EBF80028C6D13368CAF8000047F8043C45E7274A2749284807
:205DC00005F07CFD274805F0DFFE124801F0C2FE00232B70B8E62B78ACE61F4A1F4920483F
:205DE00005F06CFD204805F0CFFE00232380022094E600BF242A0020480F0020605A01005A
:205E0000802A0020745A010070070020F0000020115A0000B0070020380F002090590100AF
:205E2000C80F0020C82A0020A45A0100580F0020280F0020E802002008000020680F0020B3
:205E4000F45A0100FC5A0100185B0100905A01009C5A0100882A0020B45A0100C05A01004A
:205E6000C0570100485B0100C45A0100180F0020B80F0020A80F002010B5436E04469847A3
:205E8000034BE06E1978BDE81040002205F03EBE97360020F0B501230025062285B004464B
:205EA00080F86020A0F86830A0F89C5280F8385029464FF4087200F595600FF031FA0F4F96
:205EC0000F4B84F8745204F2347604F1740203934FF400730092214604F2A622CDE901372A
:205EE00030460AF0B9FDB4F83027304604F5E46105B0BDE8F0400AF0E9BD00BF91760000D5
:205F00006560000070B500F174030446002503672946242204F2347680F86A5000F51E704C
:205F20000FF0FEF930460AF019FE30460AF022FE3046294634220FF0F3F9042384F86030FB
:205F400070BD00BF08B5026F00F51D739A4205D01170036F01330367002008BD00F1740115
:205F60008A4209D0002380F87432521A00F234700AF0D6FD012008BD012380F874321846E6
:205F800008BD00BF70B50446D0F8A032006F154604F51D76321AEE1A964228BF1646B6B247
:205FA000324619440FF094F9D4F8A002226F304432448542C4F8A002226713D004F174019C
:205FC0008A420BD00023521A84F8743204F234700AF0A6FDD4F8A002281A70BD012384F8B5
:205FE0007432F9E70020C4F8A00270BD10B50446042100F5D962FFF73FFF94F81637B4F853
:206000001A17012B04BF002384F8163709B1002010BD04F595604FF408720FF081F9002089
:2060200010BD00BF90F83830024623B90B4B0C48197805F06BBD10B5022300F2347480F86C
:20604000603020460AF08AFD20460AF093FD20463422BDE8104000210FF062B92B2A002078
:206060000001002010B582B0032A8DF807200C460ED8F2B91D4B1E4819780722012384F824
:20608000602084F87432224605F040FD02B010BD042AFBD1B1F856372BB9012201F17403A5
:2060A00081F874220B6704F11800FEF779FC02B010BD104B0E481978224605F027FD04237F
:2060C00084F8603004F11800FEF78CFC0DF1070201212046FFF7D0FE2046FFF713FF637D89
:2060E000012BD3D12046FFF7D5FECFE7282A002000010020262A002008B505F07BFC1B4A5A
:206100001B4B1070187005F075FC1A4B187005F071FC194B187005F06DFC184B187005F032
:2061200069FC174B187005F065FC164B187005F061FC154B187005F05DFC144B187005F06D
:2061400059FC134A134B1070187005F053FC124B187005F04FFC114B11480021196005F07A
:2061600051FC104B01221A7008BD00BF292A0020302A0020282A00202A2A00202D2A0020FC
:206180002E2A00202C2A00202B2A002097360020262A00202F2A0020272A00200C10002019
:2061A00000010020252A00202DE9F04782B003888DF8071040F296618B420546144600F01E
:2061C000B78149D840F276618B4200F0208240F29F8040F284618B4240F01382A94B9DF87B
:2061E00007101B788B4200F0D687A74B1B788B4240F26687A54B1B788B4240F00483DFF88C
:20620000B092D9F8006096F86030DFF880A2DFF89C8240F28E27032B01F06681B6F89C3296
:20622000BB4200F0698700F264814BB140F28D22934240F0FB8796F87432002B00F069810D
:20624000E0213046FFF77EFE002800F05A8740F28D23A6F89C32EEE7B3F5D66F00F0628278
:2062600040F2BD618B4240F09480864B9DF807101B788B4200F07F87834B1B788B4240F28A
:206280001287824B1B788B4240F0C782DFF82092D9F8004094F860307C4F4FF00008092BC3
:2062A00040F0D980B4F89C32002B01F06380A3F26B339AB2252A00F2FB82252B00F2F882E3
:2062C000DFE813F0FE021903F602F6027C03A903E703F602F602CE03FA03F602F602F6022D
:2062E000F602F602F602F602F602C302F602F602F602F602F602F602F602F602F602F60251
:20630000F602F602F602F602F602F602F602D000002B00F0A08040F25F62934240F07181C0
:20632000584B9DF807101B788B4200F01887584B1B788B4200F0EF87564B1B788B4200F0C5
:206340007787554F3B788B4200F0C187534B1B788B4200F0A887524B1B788B4200F08F87C3
:20636000504B1B788B4200F076874F4B1B788B4271D194F87432DFF83891012BC9F80040FA
:2063800069D194F86030092B65D10022A4F89C2282E740F2A3618B4240F03381394B9DF858
:2063A00007101B788B4200F0CA86374B1B788B4240F29386354B1B788B4240F03882DFF858
:2063C000F090D9F8008098F86030304F374E092B41F06F80B8F89C32002B01F04380A3F57F
:2063E00031739AB21F2A7ED81F2B7CD8DFE813F0BB02D5027B007B007B00CC03DD037B0077
:206400007B007B007B007B007B007B00ED031404FE037B007B007B007B007B0027047B0084
:206420007B007B007B007B007B007B007B0062000CF8036094F884320133DBB2042B84F888
:20644000843240F2B887002281212046FFF714FD0023A4F89C3240F25F632B80012002B0E5
:20646000BDE8F087261D94F89932012B05D030460AF008FE002800F0108330460AF002FED4
:206480000CE200BF262A0020302A0020272A0020292A0020282A00202A2A00202B2A002026
:2064A0002D2A00202E2A00202C2A0020D42B00200810002008F1040A98F89932012B05D0BD
:2064C00050460AF0DFFD002800F06B8250460AF0D9FD4FF40872002108F595600EF020FFF8
:2064E000002388F86A3000239DF80710A8F89C3236E740F29D22934240F0988696F87432BD
:20650000002B40F08186301D0AF0BCFD002840F07B869AF80010D8F80000002205F0F6FA47
:20652000002800F07081D9F8006096F8603072E69E4B9DF807101B788B4200F0DC869C4B7D
:206540001B788B4240F2A2859A4B1B788B4240F05F81DFF86C92D9F8006096F86030DFF832
:2065600054A2DFF8588240F2B137092B40F0BE87B6F89C32BB4215D028D82BB1B3F56C7FE4
:2065800039D196F8743293B1C0213046FFF7DAFC002800F010864FF46C73A6F89C32F0E743
:2065A000A6F89C7296F87432002B40F004869AF80010D8F80000002205F0A8FA002800F0D3
:2065C0002781D9F8006096F86030CEE7B3F56F7F11D196F8B03423B9301D0AF053FD00288A
:2065E000E5D04FF40872002106F595600EF098FE002386F8383000239DF80710A6F89C3240
:20660000A9E6002303202B8002B0BDE8F087674B9DF807101B788B4200F08686644B1B7830
:206620008B4240F22685634B1B788B4240F00481DFF88C91D9F80060B6F89C32DFF8848170
:206640000027002B00F05687A3F22B239AB2422A61D8422B5FD8DFE813F023033B035E0017
:206660005E00550367037D0382033E042E045E045E005E005E005E005E005E005E004E043B
:206680007204F3035E005E005E005E005E005E005E005E00ED04CE04E8045E008004BB044E
:2066A00091045E005E005E005E005E005E005E005E00A404BD03D7035E005E005E005E009B
:2066C000A303E00392035E005E005E005E005E005E005E005E005E005E005E005E004300F1
:2066E00006F1040A96F89932012B05D050460AF0C9FC002800F0F08250460AF0C3FC0028E5
:2067000040F053872C4F4FF40872002106F595600EF006FE00E0284F9DF807100023A6F860
:206720009C320FE6214B9DF807101B788B4200F00B861F4B1B788B4240F28E841D4B1B7894
:206740008B426FD1DFF87890D9F8006096F86030DFF86080194F092B40F07586B6F89C3204
:20676000002B00F049866FF4457213449AB2182A43D8182B41D8DFE813F0C700E000400008
:206780004000400035017801400040004000400040004000B001F801C60140004000400019
:2067A000400040004000400040002700262A0020302A0020272A00202A2A0020D42B002084
:2067C000081000207C5B010006F1040A96F89932012B05D050460AF055FC002800F0B18020
:2067E00050460AF04FFC4FF40872002106F595600EF096FD002386F86A3000239DF8071055
:20680000A6F89C32B1E540F284632B80012026E640F296632B80012021E640F2BD632B808A
:2068200001201CE64FF4D6632B80012017E640F2A3632B80012012E640F276632B8001201D
:206840000DE640F27E33A4F89C3294F87432002B00F02381B4F89422D4F890122046FFF7DB
:2068600091FB0028EDD1226F04F174018A4200F0B58684F87402521A04F234700AF050F979
:20688000261D30464FF4A0610AF0E0FB94F89822002A00F0BA86012A00F0AA864FF408727E
:2068A000002104F595600EF03BFD002384F86A300023A4F89C32CEE540F26B33A4F89C32E0
:2068C00094F87432002B00F0E88094F878122046FFF738FB0028EFD1C4F8A00294F88422E6
:2068E00004F520712046FFF74DFB00286AD04FF45B73A4F89C3294F87432002BEED1CCE0C5
:2069000040F21533A6F89C3296F87432CBB196F878123046FFF716FB0028F1D1C6F8A00202
:2069200096F8842206F520713046FFF72BFB00285CD040F21633A6F89C3296F87432002B6B
:20694000EED198F800103868002205F0DFF800283FF468AFD9F8006096F86030FBE64FF465
:206960003173A8F89C3298F87432D3B198F878124046FFF7E7FA0028F1D1C8F8A00298F8F8
:20698000842208F520714046FFF7FCFA002800F0008140F2C523A8F89C3298F87432002BCF
:2069A000EDD139783068002205F0B0F800283FF43EAFD9F8008098F8603008E594F8743239
:2069C000002B6AD0B4F88C122046090AFFF7BAFA28B340F26F33A4F89C3294F87432002B6F
:2069E000F0D15AE096F87432002BAAD0B6F886123046090AFFF7A6FA00283BD040F21A33AC
:206A0000A6F89C3296F87432002BEFD199E74FF45C73A4F89C3294F87432002B3DD094F8F9
:206A20008C122046FFF78EFA0028F0D1C4F8A002B4F88C22D4F888122046FFF7A3FA20BBF9
:206A400094F89832002B00F0C085B4F886122046090AFFF777FA98B34FF45D73A4F89C3294
:206A600094F87432002BF0D117E096F87432002B3FF467AF96F886123046FFF763FA88B32F
:206A800040F21B33A6F89C32EFE740F27133A4F89C3294F87432002BCAD1CA4B39781868B6
:206AA000002205F033F800283FF4B7AED9F8004094F86030FFF7F3BB94F87432002BECD0EA
:206AC00094F886122046FFF73DFA002800F07D8540F27533A4F89C32EEE796F87432002B6D
:206AE0003FF42FAFB6F88C123046090AFFF72AFA00283FD040F22233A6F89C32EDE74FF455
:206B00004973A6F89C3296F87432002B3FF419AFB6F88C22D6F888123046FFF733FA00286E
:206B2000EDD1326F06F174018A4200F0528586F87402521A06F2347009F0F2FF06F1040A0C
:206B400050464FF4A0610AF081FA4FF40872002106F595600EF0E4FB40F22D33A6F89C323D
:206B600034E640F22333A6F89C3296F87432002B3FF4E7AE96F88C123046FFF7E3F9002844
:206B8000EFD1C6F8A002C3E798F87432002B3FF408AFB8F886124046090AFFF7D3F948B144
:206BA00040F2C923A8F89C32EEE798F87432002B3FF4F7AE98F886124046FFF7C3F948B1E2
:206BC00040F2CA23A8F89C32EFE798F87432002B3FF4E7AEB8F88C124046090AFFF7B2F9A1
:206BE000F8B140F2D223A8F89C32EEE798F87432002B3FF4D6AEB8F88C22D8F8881240461C
:206C0000FFF7C0F900B34FF43573A8F89C32EDE740F2D323A8F89C3298F87432002B3FF4BB
:206C2000C0AE98F88C124046FFF78CF90028EFD1C8F8A002DFE740F2DA23A8F89C3298F87A
:206C40007432002B3FF4ADAE98F898124046FFF779F90028EFD1D8F8702008F174018A422B
:206C600000F0C18488F87402521A08F2347009F057FF08F1040A50464FF4A0610AF0E6F9D6
:206C80004FF40872002108F595600EF049FB40F2E323A8F89C320FE440F22B23A6F89C325D
:206CA00096F87432C3B196F878123046FFF74AF90028F1D1C6F8A00296F8842206F520715B
:206CC0003046FFF75FF908B34FF40B73A6F89C3296F87432002BEFD1D9F8003093F86030CD
:206CE000032B00F05E84384A364B11781868002204F00CFF00283FF49FADD9F80060B6F8E1
:206D00009C329EE496F87432002BE5D000213046FFF718F960B140F22F23A6F89C32F1E798
:206D20004FF40C73A6F89C3296F87432002BD3D006213046FFF706F90028F1D1C6F8A00247
:206D4000062241463046FFF71DF960B140F23123A6F89C3296F87432002BF1D1BCE796F8AD
:206D60007432002BB8D003213046FFF7EBF8002800F0B68040F23223A6F89C32EFE796F8A2
:206D80007432002BA8D0B6F85C20B16D3046FFF7F9F800286CD04FF41873A6F89C32EEE792
:206DA00096F87432002B97D0B6F85C103046090AFFF7C8F8002835D040F25E23A6F89C3268
:206DC000EEE700BFD42B0020272A00204FF41673A6F89C3296F87432002B3FF47DAF96F80B
:206DE00054103046FFF7AEF80028EFD1C6F8A002B6F85420316D3046FFF7C4F8002834D0C1
:206E000040F25923A6F89C3296F87432002BEFD162E740F25F23A6F89C3296F87432002B71
:206E20003FF45AAF96F85C103046FFF78BF80028EFD1C6F8A002A6E740F23F23A6F89C3258
:206E400096F87432002B3FF447AF328AF1683046FFF798F80028EFD1337D580700F1EF8042
:206E600096F91430002BC0F2A180337D59069BD4326F06F174018A4200F0CE8386F8747245
:206E8000521A06F2347009F04BFE082306F1040A86F8603050464FF4A0610AF0D7F84FF484
:206EA0000872002106F595600EF03AFA40F26D23A6F89C3216E496F87432002B3FF40CAFA0
:206EC000F18A3046090AFFF73DF848B34FF40D73A6F89C32EFE796F87432002B3FF4FCAE47
:206EE000317D3046FFF72EF80028E9D040F23323A6F89C32EFE796F87432002B3FF4ECAE7B
:206F0000318A3046090AFFF71DF8E8B140F23D23A6F89C32EFE796F87432002B3FF4DCAE99
:206F2000B17D3046FFF70EF80028E9D040F23523A6F89C32EFE740F23E23A6F89C3296F877
:206F40007432002B3FF4C8AE317C3046FEF7FAFF0028F0D1C6F8A00277E796F87432002BA0
:206F60003FF4BAAEB6F848103046090AFEF7EAFF98B34FF41373A6F89C32EEE796F8743280
:206F8000002B3FF4A9AEB6F84820716C3046FEF7F9FF00283FF464AF40F24E23A6F89C3269
:206FA000ECE796F87432002B3FF496AEB6F854103046090AFEF7C6FF00283FF410AF40F287
:206FC0005723A6F89C32ECE740F24D23A6F89C3296F87432002B3FF47FAE96F848103046CF
:206FE000FEF7B0FF0028EFD1C6F8A002CBE740F24923A6F89C3296F87432002B3FF46CAE3D
:2070000096F840103046FEF79DFF0028EFD1C6F8A002B6F84020F16B3046FEF7B3FF002894
:20702000A0D040F24A23A6F89C3296F87432002BEFD151E696F87432002B3FF44DAEB6F844
:2070400040103046090AFEF77DFF0028D8D04FF41273A6F89C32EDE7C34B1B788B42FFF4AD
:207060006DABC24B186804F051FD9DF80710FFF765BBBD4B1B788B42FFF4D5AABB4B186807
:2070800004F044FD9DF80710FFF7CDBAB64B1B788B42FFF459AAB54B186804F037FD9DF8FE
:2070A0000710FFF751BAB04B1B788B42FFF4E9A8AE4B186804F02AFD9DF80710FFF7E1B80A
:2070C000A94B1B788B42FFF495A8A84B186804F01DFD9DF80710FFF78DB8A34B1B788B4276
:2070E000FFF468A9A14B186804F010FD9DF80710FFF760B9A6F89C7296F87432002B3FF426
:2071000008AA00213046FEF71DFF0028F2D1326F06F174018A4200F03A8286F87402521A45
:2071200006F2347009F0FCFC4FF48071301D09F08DFF40F29D23A6F89C32FFF7DFB98C4BF9
:207140008A481B680068032683F860600026A3F89C6204F0DBFC9DF80710FFF72BB9844B2F
:20716000032284F8602020461C60FEF7CBFE9DF80710FFF7DCB87E4B7C481B680068032479
:2071800083F860400024A3F89C4204F0BFFC9DF80710FFF776B8764B74481B680068032627
:2071A00083F860600026A3F89C6204F0AFFC9DF80710FFF71FB800213046FEF7C3FE002848
:2071C0007FF4EEA9326F06F174018A4200F0E38186F87402521A06F2347009F0A1FC0123C2
:2071E00086F838304FF40872002106F595600EF097F84FF4A061301D09F028FF4FF46F7378
:20720000A6F89C32FFF7E5B9D9F800000023A6F89C32FEF777FE0121D9F800000DF10702AA
:20722000FEF72AFE9DF80710FFF790B83046EDE794F87432DFF83891B4F8A422C9F80040B8
:20724000012BA4F85C277FF47CA80023A4F89C322646FFF7F3B994F87432DFF81491012BD7
:20726000C9F800407FF481A894F86030092B7FF47CA80022A4F89C222646FFF769BA94F8FD
:207280007432DFF8EC90012BC9F800407FF468A894F86030092B7FF463A80022A4F89C22FB
:2072A000A046FFF792B894F87432DFF8C490012BC9F800407FF44FA894F86030092B7FF4F1
:2072C0004AA80022A4F89C222646FFF748B994F86030DFF89C900A2BC9F800407FF436A837
:2072E00094F87422012A40F0F3800022A4F89C222646FEF78ABF1E4B1C481B680068032697
:2073000083F860600026A3F89C6204F0FFFB9DF80710FFF719B9164B20461C60FEF7BAFD22
:207320009DF80710FFF708B8114B10481B680068032683F860600026A3F89C6204F0E6FB54
:207340009DF80710FFF76FB9094B08481B680068032683F860600026A3F89C6204F0D6FBEC
:207360009DF80710FFF7EAB92F2A0020D42B00200810002094F8981294F89A224B0043F0FC
:207380003003DBB2012A84F8783208BF43F00103B4F88C2208BF84F87832D4F894321A44A7
:2073A000002940F09D800232C4F87C2284F8848204F5207C002302F07F007F2A60F07F06A0
:2073C0004FEAD2123FF634A80CF8030094F884320133DBB2042B84F884323FF634A894F877
:2073E000983294F87812002B7FF471AA01F0F70184F87812FFF76BBAB6F88C2286F884325A
:207400000432A221C6F87C2286F8781206F5207C02F07F007F2A60F07F0E4FEAD21216D876
:207420000CF8030096F884320133DBB2042B86F884327FF66CAA002281213046FEF71CFD0A
:207440000023A6F89C329DF80710FEF78EBF0CF803E096F884320133DBB2042B86F8843260
:20746000D6D9E8E7B8F88C2288F8843205328221C8F87C2288F8781208F5207C02F07F00AE
:207480007F2A60F07F0E4FEAD21216D80CF8030098F884320133DBB2042B88F884327FF673
:2074A00065AA002281214046FEF7E6FC0023A8F89C329DF80710FEF753BF0CF803E098F8E1
:2074C00084320133DBB2042B88F88432D6D9E8E75348224604F01AFB9DF80710FEF736BFB0
:2074E0000432C4F87C2261E7304692E69DF80710FEF731BF328A102386F87832002A4ED0D6
:207500000E32B6F854300BB102331A44B6F85C300BB102331A44B6F840300BB102331A44B4
:20752000B6F848300BB102331A44C6F87C2286F8847206F5207C002302F07F007F2A60F0E2
:207540007F0E4FEAD21217D80CF8030096F884320133DBB2042B86F884327FF6A4AB8121BD
:2075600000223046FEF788FC00239DF807102D4FA6F89C32FEF7E6BE0CF803E096F884327F
:207580000133DBB2042B86F88432D5D9E7E7012386F87432C8E5012386F874321FE60C22DB
:2075A000AFE79DF80710FEF7CCBE96F860301D4F092B7FF4A8A80A23397886F86030324625
:2075C000174804F0A3FAFFF79EB8C4F8A082FFF741B9012386F87432FFF7B0BA012384F859
:2075E0007432FFF74DB9012388F87432FFF741BB4FF40872002104F595600DF091FE4FF412
:207600006473A4F89C32FEF72EBF074BE06E197804F07CFAFFF742B9012386F8743234E45B
:20762000000100202A2A0020973600202DE9F04182B00024DDF820C0019486462AB31468BC
:2076400001270020451CA142E8B24FEAC71804F1010616D91EF80450166005F07F0413B1E5
:207660001E6801361E6005280BD0BCF8006004FB0764ACF800402C065FFA88F702D5146808
:20768000E0E7002002B0BDE8F081144601AAD7E72DE9F04F87B000200490002B00F090800D
:2076A0001E4691F8B0340C461746002B40F08C8091F8B134002B00F08E8094F8B634002BAB
:2076C00000F09A80B4F8B22494F8B104B2F5007F00F2AA8020F00F0300F0F001D4F8AC54CC
:2076E000501C854239D2302BDDF810B04FF0010A4FF0000904F2BA4800F0AF80B4F8B8044B
:20770000A6EB0B02C0F50075954228BF154600F2BA402A4607EB0B0120440DF0D9FDB4F84B
:20772000B834D4F8AC242B449BB2AB44B3F5007F1544CDF810B0A4F8B834C4F8AC5400F0DD
:20774000F080B4F8B2245E4502F101037CD8AB4236D894F8B11401F0F00101F0D00304F261
:20776000BA40902BC4F8BC0600F00181402900F03C81402910D9902900F0258140F2EA8011
:20778000B0291AD1012384F8993204F2B44203212046FEF771FB10E0202900F0F7803029EA
:2077A0000BD1B4F8B824C4F810070023A4F81427A4F81A372046FEF719FC012384F8B034B7
:2077C000002007B0BDE8F08F01464FF4087204F595600DF0A5FD3A78D4F8AC3484F8B1246E
:2077E000012201339642C4F8AC340492E8D094F8B634002B7FF466AF04F2B243009304AA1B
:2078000004F2AC4331463846FFF710FF002800F00281B4F8B22494F8B1040123B2F5007FE1
:2078200084F8B6347FF656AF00F0F001302920F00F033FF453AFD4F8AC3401321E449642BE
:20784000C4F8AC64BCD3B8E7AB4282D994F8B13423F00F03302B7FF451AF94F8C536002BD0
:207860007FF44CAF94F8C436EBB9A4F8C23617F80B300BF10102691C1B02B242A4F8C0366B
:20788000C4F8AC1471D2BA5C84F8C4A613430BF1020B0235402BA4F8C036CDF810B0C4F859
:2078A000AC543FF62BAFB4F8C456012D7FF426AFB4F8C226B4F8C016A6EB0B008B1A834261
:2078C00028BF034602F2CC6007EB0B019AB22044039302920DF0FCFCB4F8C2C6039BD4F8ED
:2078E000AC14029AB4F8C00663449BB2934483420A44CDF810B0C4F8AC24A4F8C2360DD159
:20790000E21884F8C55682F8CC96B4F8B224023AD31A9BB2A4F81837A4F81A3784F816A7F1
